{
  "_format": "hh-sol-artifact-1",
  "contractName": "ItemManager",
  "sourceName": "contracts/ItemManager.sol",
  "abi": [
    {
      "anonymous": false,
      "inputs": [
        {
          "indexed": true,
          "internalType": "address",
          "name": "previousOwner",
          "type": "address"
        },
        {
          "indexed": true,
          "internalType": "address",
          "name": "newOwner",
          "type": "address"
        }
      ],
      "name": "OwnershipTransferred",
      "type": "event"
    },
    {
      "anonymous": false,
      "inputs": [
        {
          "indexed": true,
          "internalType": "uint256",
          "name": "itemIndex",
          "type": "uint256"
        },
        {
          "indexed": true,
          "internalType": "uint256",
          "name": "step",
          "type": "uint256"
        },
        {
          "indexed": false,
          "internalType": "address",
          "name": "_address",
          "type": "address"
        }
      ],
      "name": "SupplyChainStep",
      "type": "event"
    },
    {
      "inputs": [
        {
          "internalType": "string",
          "name": "_identifier",
          "type": "string"
        },
        {
          "internalType": "uint256",
          "name": "_priceInWei",
          "type": "uint256"
        }
      ],
      "name": "createItem",
      "outputs": [],
      "stateMutability": "nonpayable",
      "type": "function"
    },
    {
      "inputs": [
        {
          "internalType": "uint256",
          "name": "_index",
          "type": "uint256"
        }
      ],
      "name": "deliver",
      "outputs": [],
      "stateMutability": "nonpayable",
      "type": "function"
    },
    {
      "inputs": [
        {
          "internalType": "uint256",
          "name": "",
          "type": "uint256"
        }
      ],
      "name": "items",
      "outputs": [
        {
          "internalType": "enum ItemManager.SupplyChainSteps",
          "name": "step",
          "type": "uint8"
        },
        {
          "internalType": "contract Item",
          "name": "item",
          "type": "address"
        },
        {
          "internalType": "string",
          "name": "identifier",
          "type": "string"
        }
      ],
      "stateMutability": "view",
      "type": "function"
    },
    {
      "inputs": [],
      "name": "owner",
      "outputs": [
        {
          "internalType": "address",
          "name": "",
          "type": "address"
        }
      ],
      "stateMutability": "view",
      "type": "function"
    },
    {
      "inputs": [
        {
          "internalType": "uint256",
          "name": "_index",
          "type": "uint256"
        }
      ],
      "name": "pay",
      "outputs": [],
      "stateMutability": "payable",
      "type": "function"
    },
    {
      "inputs": [],
      "name": "renounceOwnership",
      "outputs": [],
      "stateMutability": "nonpayable",
      "type": "function"
    },
    {
      "inputs": [
        {
          "internalType": "address",
          "name": "newOwner",
          "type": "address"
        }
      ],
      "name": "transferOwnership",
      "outputs": [],
      "stateMutability": "nonpayable",
      "type": "function"
    }
  ],
  "bytecode": "0x608060405234801561001057600080fd5b5061002d61002261003260201b60201c565b61003a60201b60201c565b6100fe565b600033905090565b60008060009054906101000a900473ffffffffffffffffffffffffffffffffffffffff169050816000806101000a81548173ffffffffffffffffffffffffffffffffffffffff021916908373ffffffffffffffffffffffffffffffffffffffff1602179055508173ffffffffffffffffffffffffffffffffffffffff168173ffffffffffffffffffffffffffffffffffffffff167f8be0079c531659141344cd1fd0a4f28419497f9722a3daafe3b4186f6b6457e060405160405180910390a35050565b611f2e8061010d6000396000f3fe6080604052600436106200007a5760003560e01c80638da5cb5b11620000555780638da5cb5b14620000f5578063bfb231d21462000125578063c290d691146200016b578063f2fde38b146200018b576200007a565b80633bd5d173146200007f578063715018a614620000ad5780638c55174214620000c7575b600080fd5b3480156200008c57600080fd5b50620000ab6004803603810190620000a5919062000f74565b620001b9565b005b348015620000ba57600080fd5b50620000c5620003ca565b005b348015620000d457600080fd5b50620000f36004803603810190620000ed919062000f1a565b6200045b565b005b3480156200010257600080fd5b506200010d620006c9565b6040516200011c91906200114c565b60405180910390f35b3480156200013257600080fd5b506200015160048036038101906200014b919062000f74565b620006f2565b6040516200016293929190620011a6565b60405180910390f35b62000189600480360381019062000183919062000f74565b620007d9565b005b3480156200019857600080fd5b50620001b76004803603810190620001b1919062000eee565b62000ba9565b005b60006002811115620001f4577f4e487b7100000000000000000000000000000000000000000000000000000000600052602160045260246000fd5b6001600083815260200190815260200160002060000160009054906101000a900460ff16600281111562000251577f4e487b7100000000000000000000000000000000000000000000000000000000600052602160045260246000fd5b1462000294576040517f08c379a00000000000000000000000000000000000000000000000000000000081526004016200028b90620011ea565b60405180910390fd5b60026001600083815260200190815260200160002060000160006101000a81548160ff02191690836002811115620002f5577f4e487b7100000000000000000000000000000000000000000000000000000000600052602160045260246000fd5b02179055506001600082815260200190815260200160002060000160009054906101000a900460ff16600281111562000357577f4e487b7100000000000000000000000000000000000000000000000000000000600052602160045260246000fd5b817fa4035636e99f06b7651a604c1019fa4e8779fe68ef27eeb74dff2de348f6199b6001600085815260200190815260200160002060000160019054906101000a900473ffffffffffffffffffffffffffffffffffffffff16604051620003bf91906200114c565b60405180910390a350565b620003d462000cad565b73ffffffffffffffffffffffffffffffffffffffff16620003f4620006c9565b73ffffffffffffffffffffffffffffffffffffffff16146200044d576040517f08c379a000000000000000000000000000000000000000000000000000000000815260040162000444906200122e565b60405180910390fd5b62000459600062000cb5565b565b6200046562000cad565b73ffffffffffffffffffffffffffffffffffffffff1662000485620006c9565b73ffffffffffffffffffffffffffffffffffffffff1614620004de576040517f08c379a0000000000000000000000000000000000000000000000000000000008152600401620004d5906200122e565b60405180910390fd5b60003082600254604051620004f39062000d79565b620005019392919062001169565b604051809103906000f0801580156200051e573d6000803e3d6000fd5b5090508060016000600254815260200190815260200160002060000160016101000a81548173ffffffffffffffffffffffffffffffffffffffff021916908373ffffffffffffffffffffffffffffffffffffffff160217905550600060016000600254815260200190815260200160002060000160006101000a81548160ff02191690836002811115620005db577f4e487b7100000000000000000000000000000000000000000000000000000000600052602160045260246000fd5b02179055508260016000600254815260200190815260200160002060010190805190602001906200060e92919062000d87565b5060016000600254815260200190815260200160002060000160009054906101000a900460ff1660028111156200066e577f4e487b7100000000000000000000000000000000000000000000000000000000600052602160045260246000fd5b6002547fa4035636e99f06b7651a604c1019fa4e8779fe68ef27eeb74dff2de348f6199b83604051620006a291906200114c565b60405180910390a360026000815480929190620006bf9062001499565b9190505550505050565b60008060009054906101000a900473ffffffffffffffffffffffffffffffffffffffff16905090565b60016020528060005260406000206000915090508060000160009054906101000a900460ff16908060000160019054906101000a900473ffffffffffffffffffffffffffffffffffffffff169080600101805462000750906200142d565b80601f01602080910402602001604051908101604052809291908181526020018280546200077e906200142d565b8015620007cf5780601f10620007a357610100808354040283529160200191620007cf565b820191906000526020600020905b815481529060010190602001808311620007b157829003601f168201915b5050505050905083565b620007e362000cad565b73ffffffffffffffffffffffffffffffffffffffff1662000803620006c9565b73ffffffffffffffffffffffffffffffffffffffff16146200085c576040517f08c379a000000000000000000000000000000000000000000000000000000000815260040162000853906200122e565b60405180910390fd5b60006001600083815260200190815260200160002060000160019054906101000a900473ffffffffffffffffffffffffffffffffffffffff1690503373ffffffffffffffffffffffffffffffffffffffff168173ffffffffffffffffffffffffffffffffffffffff161462000908576040517f08c379a0000000000000000000000000000000000000000000000000000000008152600401620008ff9062001250565b60405180910390fd5b348173ffffffffffffffffffffffffffffffffffffffff16633c8da5886040518163ffffffff1660e01b815260040160206040518083038186803b1580156200095057600080fd5b505afa15801562000965573d6000803e3d6000fd5b505050506040513d601f19601f820116820180604052508101906200098b919062000fa0565b14620009ce576040517f08c379a0000000000000000000000000000000000000000000000000000000008152600401620009c59062001294565b60405180910390fd5b6000600281111562000a09577f4e487b7100000000000000000000000000000000000000000000000000000000600052602160045260246000fd5b6001600084815260200190815260200160002060000160009054906101000a900460ff16600281111562000a66577f4e487b7100000000000000000000000000000000000000000000000000000000600052602160045260246000fd5b1462000aa9576040517f08c379a000000000000000000000000000000000000000000000000000000000815260040162000aa09062001272565b60405180910390fd5b600180600084815260200190815260200160002060000160006101000a81548160ff0219169083600281111562000b09577f4e487b7100000000000000000000000000000000000000000000000000000000600052602160045260246000fd5b02179055506001600083815260200190815260200160002060000160009054906101000a900460ff16600281111562000b6b577f4e487b7100000000000000000000000000000000000000000000000000000000600052602160045260246000fd5b827fa4035636e99f06b7651a604c1019fa4e8779fe68ef27eeb74dff2de348f6199b8360405162000b9d91906200114c565b60405180910390a35050565b62000bb362000cad565b73ffffffffffffffffffffffffffffffffffffffff1662000bd3620006c9565b73ffffffffffffffffffffffffffffffffffffffff161462000c2c576040517f08c379a000000000000000000000000000000000000000000000000000000000815260040162000c23906200122e565b60405180910390fd5b600073ffffffffffffffffffffffffffffffffffffffff168173ffffffffffffffffffffffffffffffffffffffff16141562000c9f576040517f08c379a000000000000000000000000000000000000000000000000000000000815260040162000c96906200120c565b60405180910390fd5b62000caa8162000cb5565b50565b600033905090565b60008060009054906101000a900473ffffffffffffffffffffffffffffffffffffffff169050816000806101000a81548173ffffffffffffffffffffffffffffffffffffffff021916908373ffffffffffffffffffffffffffffffffffffffff1602179055508173ffffffffffffffffffffffffffffffffffffffff168173ffffffffffffffffffffffffffffffffffffffff167f8be0079c531659141344cd1fd0a4f28419497f9722a3daafe3b4186f6b6457e060405160405180910390a35050565b61076b806200178e83390190565b82805462000d95906200142d565b90600052602060002090601f01602090048101928262000db9576000855562000e05565b82601f1062000dd457805160ff191683800117855562000e05565b8280016001018555821562000e05579182015b8281111562000e0457825182559160200191906001019062000de7565b5b50905062000e14919062000e18565b5090565b5b8082111562000e3357600081600090555060010162000e19565b5090565b600062000e4e62000e4884620012df565b620012b6565b90508281526020810184848401111562000e6757600080fd5b62000e74848285620013e8565b509392505050565b60008135905062000e8d8162001759565b92915050565b600082601f83011262000ea557600080fd5b813562000eb784826020860162000e37565b91505092915050565b60008135905062000ed18162001773565b92915050565b60008151905062000ee88162001773565b92915050565b60006020828403121562000f0157600080fd5b600062000f118482850162000e7c565b91505092915050565b6000806040838503121562000f2e57600080fd5b600083013567ffffffffffffffff81111562000f4957600080fd5b62000f578582860162000e93565b925050602062000f6a8582860162000ec0565b9150509250929050565b60006020828403121562000f8757600080fd5b600062000f978482850162000ec0565b91505092915050565b60006020828403121562000fb357600080fd5b600062000fc38482850162000ed7565b91505092915050565b62000fd78162001331565b82525050565b62000fe88162001384565b82525050565b62000ff981620013ac565b82525050565b6200100a81620013d4565b82525050565b60006200101d8262001315565b62001029818562001320565b93506200103b818560208601620013f7565b6200104681620015a3565b840191505092915050565b60006200106060258362001320565b91506200106d82620015b4565b604082019050919050565b60006200108760268362001320565b9150620010948262001603565b604082019050919050565b6000620010ae60208362001320565b9150620010bb8262001652565b602082019050919050565b6000620010d560318362001320565b9150620010e2826200167b565b604082019050919050565b6000620010fc60238362001320565b91506200110982620016ca565b604082019050919050565b600062001123600e8362001320565b9150620011308262001719565b602082019050919050565b62001146816200137a565b82525050565b600060208201905062001163600083018462000fcc565b92915050565b600060608201905062001180600083018662000fdd565b6200118f60208301856200113b565b6200119e60408301846200113b565b949350505050565b6000606082019050620011bd600083018662000fff565b620011cc602083018562000fee565b8181036040830152620011e0818462001010565b9050949350505050565b60006020820190508181036000830152620012058162001051565b9050919050565b60006020820190508181036000830152620012278162001078565b9050919050565b6000602082019050818103600083015262001249816200109f565b9050919050565b600060208201905081810360008301526200126b81620010c6565b9050919050565b600060208201905081810360008301526200128d81620010ed565b9050919050565b60006020820190508181036000830152620012af8162001114565b9050919050565b6000620012c2620012d5565b9050620012d0828262001463565b919050565b6000604051905090565b600067ffffffffffffffff821115620012fd57620012fc62001574565b5b6200130882620015a3565b9050602081019050919050565b600081519050919050565b600082825260208201905092915050565b60006200133e826200135a565b9050919050565b6000819050620013558262001742565b919050565b600073ffffffffffffffffffffffffffffffffffffffff82169050919050565b6000819050919050565b6000620013918262001398565b9050919050565b6000620013a5826200135a565b9050919050565b6000620013b982620013c0565b9050919050565b6000620013cd826200135a565b9050919050565b6000620013e18262001345565b9050919050565b82818337600083830152505050565b60005b8381101562001417578082015181840152602081019050620013fa565b8381111562001427576000848401525b50505050565b600060028204905060018216806200144657607f821691505b602082108114156200145d576200145c62001545565b5b50919050565b6200146e82620015a3565b810181811067ffffffffffffffff8211171562001490576200148f62001574565b5b80604052505050565b6000620014a6826200137a565b91507fffffffffffffffffffffffffffffffffffffffffffffffffffffffffffffffff821415620014dc57620014db620014e7565b5b600182019050919050565b7f4e487b7100000000000000000000000000000000000000000000000000000000600052601160045260246000fd5b7f4e487b7100000000000000000000000000000000000000000000000000000000600052602160045260246000fd5b7f4e487b7100000000000000000000000000000000000000000000000000000000600052602260045260246000fd5b7f4e487b7100000000000000000000000000000000000000000000000000000000600052604160045260246000fd5b6000601f19601f8301169050919050565b7f4974656d206973206675727468657220646f776e2074686520737570706c792060008201527f636861696e000000000000000000000000000000000000000000000000000000602082015250565b7f4f776e61626c653a206e6577206f776e657220697320746865207a65726f206160008201527f6464726573730000000000000000000000000000000000000000000000000000602082015250565b7f4f776e61626c653a2063616c6c6572206973206e6f7420746865206f776e6572600082015250565b7f4974656d732061726520736f6c6520726573706f6e7369626c65206f6620757060008201527f646174696e67207468656d73656c766573000000000000000000000000000000602082015250565b7f4974656d206973206675727468657220696e2074686520737570706c7920636860008201527f61696e0000000000000000000000000000000000000000000000000000000000602082015250565b7f4e6f742066756c6c792070616964000000000000000000000000000000000000600082015250565b6003811062001756576200175562001516565b5b50565b620017648162001331565b81146200177057600080fd5b50565b6200177e816200137a565b81146200178a57600080fd5b5056fe608060405234801561001057600080fd5b5060405161076b38038061076b833981810160405281019061003291906100b3565b816000819055508060028190555082600360006101000a81548173ffffffffffffffffffffffffffffffffffffffff021916908373ffffffffffffffffffffffffffffffffffffffff16021790555050505061017e565b60008151905061009881610150565b92915050565b6000815190506100ad81610167565b92915050565b6000806000606084860312156100c857600080fd5b60006100d686828701610089565b93505060206100e78682870161009e565b92505060406100f88682870161009e565b9150509250925092565b600061010d82610126565b9050919050565b600061011f82610102565b9050919050565b600073ffffffffffffffffffffffffffffffffffffffff82169050919050565b6000819050919050565b61015981610114565b811461016457600080fd5b50565b61017081610146565b811461017b57600080fd5b50565b6105de8061018d6000396000f3fe6080604052600436106100385760003560e01c80632986c0e5146102505780633c8da5881461027b57806383d12eef146102a657610241565b36610241576000543414610081576040517f08c379a0000000000000000000000000000000000000000000000000000000008152600401610078906103c3565b60405180910390fd5b6000600154146100c6576040517f08c379a00000000000000000000000000000000000000000000000000000000081526004016100bd906103a3565b60405180910390fd5b34600160008282546100d89190610445565b925050819055506000600360009054906101000a900473ffffffffffffffffffffffffffffffffffffffff1673ffffffffffffffffffffffffffffffffffffffff163460025460405160240161012e9190610403565b6040516020818303038152906040527fc290d691000000000000000000000000000000000000000000000000000000007bffffffffffffffffffffffffffffffffffffffffffffffffffffffff19166020820180517bffffffffffffffffffffffffffffffffffffffffffffffffffffffff83818316178352505050506040516101b8919061038c565b60006040518083038185875af1925050503d80600081146101f5576040519150601f19603f3d011682016040523d82523d6000602084013e6101fa565b606091505b505090508061023e576040517f08c379a0000000000000000000000000000000000000000000000000000000008152600401610235906103e3565b60405180910390fd5b50005b34801561024d57600080fd5b50005b34801561025c57600080fd5b506102656102d1565b6040516102729190610403565b60405180910390f35b34801561028757600080fd5b506102906102d7565b60405161029d9190610403565b60405180910390f35b3480156102b257600080fd5b506102bb6102dd565b6040516102c89190610403565b60405180910390f35b60025481565b60005481565b60015481565b60006102ee8261041e565b6102f88185610429565b93506103088185602086016104a5565b80840191505092915050565b6000610321601583610434565b915061032c82610507565b602082019050919050565b6000610344602183610434565b915061034f82610530565b604082019050919050565b6000610367600f83610434565b91506103728261057f565b602082019050919050565b6103868161049b565b82525050565b600061039882846102e3565b915081905092915050565b600060208201905081810360008301526103bc81610314565b9050919050565b600060208201905081810360008301526103dc81610337565b9050919050565b600060208201905081810360008301526103fc8161035a565b9050919050565b6000602082019050610418600083018461037d565b92915050565b600081519050919050565b600081905092915050565b600082825260208201905092915050565b60006104508261049b565b915061045b8361049b565b9250827fffffffffffffffffffffffffffffffffffffffffffffffffffffffffffffffff038211156104905761048f6104d8565b5b828201905092915050565b6000819050919050565b60005b838110156104c35780820151818401526020810190506104a8565b838111156104d2576000848401525b50505050565b7f4e487b7100000000000000000000000000000000000000000000000000000000600052601160045260246000fd5b7f4974656d20697320616c72656164792070616964210000000000000000000000600082015250565b7f576520646f6e277420737570706f7274207061727469616c207061796d656e7460008201527f7300000000000000000000000000000000000000000000000000000000000000602082015250565b7f44656c6976657279206661696c6564000000000000000000000000000000000060008201525056fea2646970667358221220e5aa7ac45dec77006a25638702fc9b039bb9d4a230646d24e0aea90584b2f22764736f6c63430008040033a26469706673582212206a375b9a40893122abc5efa7d653275f9c860927db40b71468a371db8d2a786464736f6c63430008040033",
  "linkReferences": {},
  "deployedLinkReferences": {}
}